:1000000012C07FCD2BC02AC029C028C027C026C05F
:1000100025C0A8CC23C022C021C020C01FC01EC044
:100020001DC01CC01BC011241FBECFE5D4E0DEBF25
:10003000CDBF10E0A0E6B0E0ECEDFCE102C0059021
:100040000D92A63EB107D9F721E0A6EEB0E001C0BF
:100050001D92AC34B207E1F761DA3ECED1CFCF9238
:10006000DF92EF92FF920F931F936B017C0120E0D0
:1000700030E040E05FE46ED387FD0CC020E030E06C
:1000800040E05FE4C701B60193D18ED38B019C01A0
:10009000305805C0C701B60187D38B019C01B80158
:1000A000C9011F910F91FF90EF90DF90CF900895BD
:1000B000A4E0B0E0EDE5F0E082CD7C016A01FC0156
:1000C0008081823008F44AC1FB019081923008F4AB
:1000D00042C1843079F4943009F040C1F701918134
:1000E000FB018181981709F439C1A4EAEA2EA0E046
:1000F000FA2E34C1943009F42EC1923091F482303A
:1001000009F02CC188E0F701DA0101900D928A957F
:10011000E1F7FB018181F70191818923FA01818354
:100120001CC1823009F417C1F70182819381FB0160
:10013000A281B381F7010481158126813781FB01FA
:1001400084809580A680B780FC01EA1BFB0BAF0181
:10015000F7FF04C0442755274E1B5F0B4032510563
:100160000CF074C01E161F06B4F524013501042ED0
:1001700004C076946794579447940A94D2F74982BE
:100180005A826B827C82412C512C3201439404C0F0
:10019000440C551C661C771C4A95D2F741E0441A62
:1001A000510861087108482059206A207B20812C61
:1001B000912C5401839445284628472819F4812C12
:1001C000912C540149805A806B807C80842895282A
:1001D000A628B72846C0EF2B09F443C0840F951F0B
:1001E00028013901042E04C07694679457944794EB
:1001F0000A94D2F749825A826B827C82412C512C1C
:100200003201439404C0440C551C661C771C4A956B
:10021000D2F741E0441A5108610871084022512286
:100220006222732201E010E020E030E045284628F9
:10023000472819F400E010E0980149805A806B804B
:100240007C8004291529262937290BC0A817B9074E
:1002500024F4812C912C540104C0CD0100E010E065
:100260009801F7014181FB015181451709F446C00E
:10027000442349F024013501401A510A620A730AE5
:100280009301820104C0081919092A093B0937FDA5
:1002900005C0F6011182938382830CC041E0F60110
:1002A00041839383828330952095109501951F4F4C
:1002B0002F4F3F4F04831583268337830EC0880F4B
:1002C000991FAA1FBB1FF60184839583A683B7835A
:1002D00082819381019793838283F6018481958142
:1002E000A681B781AC01BD01415051096109710975
:1002F0004F3F5F4F6F4F7F4310F30CC0F6014183B8
:1003000093838283080D191D2A1D3B1D04831583C9
:100310002683378383E0F60180834481558166819B
:10032000778177FF1AC0DB01CA0181709927AA275C
:10033000BB277695679557954795842B952BA62BCC
:10034000B72B84839583A683B7838281938101969B
:100350009383828302C07B0101C07601C70124968A
:10036000E0E149CCA0E2B0E0E7EBF1E036CC6D8F04
:100370007E8F8F8F98A3298F3A8F4B8F5C8FBE0112
:100380006F5E7F4FCE014D9697D3BE01675F7F4F63
:10039000CE01499691D3AE014F5F5F4FBE01675FBB
:1003A0007F4FCE01419684DEBDD2A096E2E031CCF3
:1003B000A0E2B0E0EDEDF1E010CC6D8F7E8F8F8F7D
:1003C00098A3298F3A8F4B8F5C8FBE016F5E7F4F52
:1003D000CE014D9671D3BE01675F7F4FCE01499626
:1003E0006BD38A8591E089278A87AE014F5F5F4F83
:1003F000BE01675F7F4FCE0141965ADE93D2A09631
:10040000E2E007CCA0E2B0E0E7E0F2E0D8CB6D8F0D
:100410007E8F8F8F98A3298F3A8F4B8F5C8FBE0171
:100420006F5E7F4FCE014D9647D3BE01675F7F4F12
:10043000CE01499641D39989923008F412C089853A
:10044000823008F41AC0943021F4823009F4B4C028
:1004500008C0843021F4923009F4AEC00EC092304E
:1004600051F481E02A899A85291301C080E08A8BA2
:10047000CE014196A3C0823051F481E02A899A8549
:10048000291301C080E08A87CE01099697C08D8824
:100490009E88AF88B88C0D851E852F853889E0E24F
:1004A000F0E080E090E0DC01C12CD12C760140E04E
:1004B00050E0BA0180FE18C0400F511F621F731F29
:1004C0008C0D9D1DAE1DBF1D412C512C320143943E
:1004D000401751076207730718F0412C512C320165
:1004E000840D951DA61DB71DCC0CDD1CEE1CFF1C3C
:1004F00037FF02C06894C0F8000F111F221F331F7E
:10050000B694A794979487943197A1F62B893C8948
:10051000EB85FC852E0F3F1F2E5F3F4F3C832B83C7
:1005200021E0EA893A85E31301C020E02A83EB81C8
:10053000FC810CC080FF05C076956795579547955F
:100540007068B695A795979587953196B7FDF2CFC8
:100550009F010CC0880F991FAA1FBB1F77FD8160E8
:10056000440F551F661F771F215031090097A105C1
:10057000E0E4BE0778F32B833C838C019D010F7769
:10058000112722273327003411052105310559F49D
:1005900087FD09C0452B462B472B29F0805C9F4FD8
:1005A000AF4FBF4F80788D839E83AF83B88783E042
:1005B0008983CE01019602C084EA90E0B3D1A0966F
:1005C000E0E119CBA8E1B0E0E7EEF2E000CB6D8B03
:1005D0007E8B8F8B988F298B3A8B4B8B5C8BBE01DC
:1005E000675F7F4FCE01459667D2BE016F5F7F4F39
:1005F000CE01419661D29985923008F475C0898107
:10060000823008F474C02A853A8123272A879430DF
:1006100011F0923019F4981367C06CC0843039F42B
:100620001D861E861F86188A1C861B8604C0823083
:1006300029F484E08987CE0109965EC08B859C856C
:100640002B813C81821B930B9C878B874D855E851C
:100650006F857889CD80DE80EF80F8844C155D054C
:100660006E057F0538F4440F551F661F771F0197ED
:100670009C878B87EFE1F0E000E010E020E030E4C1
:1006800080E090E0DC014C155D056E057F0540F0D3
:10069000802B912BA22BB32B4C195D096E097F097E
:1006A0003695279517950795440F551F661F771F99
:1006B000319749F78C019D010F77112722273327A6
:1006C000003411052105310559F487FD09C0452B7A
:1006D000462B472B29F0805C9F4FAF4FBF4F807850
:1006E0008D879E87AF87B88BCE01099605C0CE0156
:1006F000019602C084EA90E015D16896E8E083CACA
:10070000A8E1B0E0E5E8F3E068CA6D8B7E8B8F8BE3
:10071000988F298B3A8B4B8B5C8BBE01675F7F4F29
:10072000CE014596C9D1BE016F5F7F4FCE01419684
:10073000C3D18985823050F08981823038F0BE0182
:100740006F5F7F4FCE01099626D201C08FEF68966A
:10075000E2E05FCAA8E1B0E0EFEAF3E03ECA6D8BE9
:100760007E8B8F8B988F298B3A8B4B8B5C8BBE014A
:10077000675F7F4FCE0145969FD1BE016F5F7F4F70
:10078000CE01419699D18985823050F0898182309D
:1007900038F0BE016F5F7F4FCE010996FCD101C0DA
:1007A0008FEF6896E2E035CAACE0B0E0E9EDF3E047
:1007B00012CA69877A878B879C87BE016F5F7F4FDC
:1007C000CE01099679D18981823091F1823080F110
:1007D000843041F48A81882331F100E010E020E088
:1007E00030E829C02B813C8137FD22C02F313105F3
:1007F0008CF78EE190E0821B930B0D811E812F817F
:10080000388504C036952795179507958A95D2F7B0
:100810008A81882381F030952095109501951F4F8E
:100820002F4F3F4F08C00FEF1FEF2FEF3FE703C0E1
:1008300000E010E09801B801C9012C96E4E0E7C996
:10084000A8E0B0E0E5E2F4E0C2C98B019C011A82A5
:10085000611571058105910519F482E089835CC0F9
:1008600083E089834EE150E05C834B83C901B8018A
:100870008BD9019797FF39C0EE27FF27E81BF90BAB
:1008800041E050E060E070E00E2E04C0440F551FC0
:10089000661F771F0A94D2F7415051096109710907
:1008A0004023512362237323C12CD12C7601C3949E
:1008B000452B462B472B19F4C12CD12C760104C0B3
:1008C0003695279517950795EA95D2F70C291D2996
:1008D0002E293F290D831E832F8338872EE130E098
:1008E000281B390B3C832B8317C0009729F40D83F9
:1008F0001E832F83388710C0082E04C0000F111FDD
:10090000221F331F0A94D2F70D831E832F8338874B
:10091000481B590B5C834B83CE01019603D028966C
:10092000E8E071C90F931F93CF93DF93DC01149616
:100930004D915D916D917C9117971196EC91119766
:100940008C91823020F460618FEF90E0A6C08430FB
:1009500009F49EC0823009F495C041155105610526
:10096000710509F492C012962D913C91139722388B
:100970008FEF38070CF058C0C2E8DFEFC21BD30B73
:10098000CA31D1056CF58A019B010C2E04C0369545
:100990002795179507950A94D2F781E090E0A0E09B
:1009A000B0E00C2E04C0880F991FAA1FBB1F0A9429
:1009B000D2F70197A109B10984239523A623B72370
:1009C00041E050E060E070E0892B8A2B8B2B19F41A
:1009D00040E050E0BA01402B512B622B732B03C037
:1009E00040E050E0BA01DB01CA018F779927AA27BE
:1009F000BB2780349105A105B10539F447FF09C033
:100A0000405C5F4F6F4F7F4F04C0415C5F4F6F4F43
:100A10007F4F81E090E041155105610520E47207A8
:100A200048F580E090E026C0203831058CF5DB01E8
:100A3000CA018F779927AA27BB2780349105A10582
:100A4000B10539F447FF09C0405C5F4F6F4F7F4FDE
:100A500004C0415C5F4F6F4F7F4F77FD04C0C901F9
:100A600081589F4F07C07695679557954795C9015F
:100A700080589F4F97E076956795579547959A953B
:100A8000D1F70BC080E090E005C080E090E005C0A9
:100A90008FEF90E040E050E0BA01982F9695E0FB90
:100AA00097F9362F80FB37F9642F752F832FDF914D
:100AB000CF911F910F910895CF92DF92EF92DC01B9
:100AC000FB01CC901196DC90119712968C911297A5
:100AD0003FE7E32EE8226E2DA60170E0982F991FC4
:100AE0009927991F13962C91822F880F892B90E0BC
:100AF00027FB222720F92183009729F5411551056D
:100B00006105710511F482E027C082E89FEF9383AD
:100B1000828327E0440F551F661F771F2A95D1F760
:100B200083E0808309C0440F551F661F771F8281B1
:100B3000938101979383828341155105610580E478
:100B4000780788F320C08F3F910579F4411551054E
:100B50006105710519F484E0808319C0E4FE03C0C7
:100B600081E0808310C010820EC08F57910993835B
:100B7000828383E0808387E0440F551F661F771FC1
:100B80008A95D1F770644483558366837783EF90A9
:100B9000DF90CF900895CF93FC01DB0190819230DC
:100BA00008F452C08C91823008F44EC0943071F435
:100BB000843039F411962C9130E08181281B310961
:100BC00048C08181882309F43FC03BC0843029F4A8
:100BD00011968C91811138C034C0923019F4823052
:100BE000B9F735C0823069F3C18111968C911197A4
:100BF000C8131DC02281338112968D919C91139749
:100C0000821793070CF413C0281739070CF417C088
:100C1000448155816681778114968D919D910D90C7
:100C2000BC91A02D84179507A607B70718F4C1112A
:100C300008C00AC0481759076A077B0740F4C1116A
:100C400003C02FEF3FEF05C021E030E002C020E0FD
:100C500030E0C901CF910895FC01680F791F80E051
:100C600048E10FC0219198E0322F3827532F51705F
:100C700030FD84278695513009F48068269591507F
:100C800099F7E617F70771F708950F931F93CF931E
:100C9000DF93CDB7DEB760970FB6F894DEBF0FBE17
:100CA000CDBF90E1E4E9F0E0DE01119601900D92F4
:100CB0009A95E1F7DB019C911196FC91E0E0E92B1C
:100CC000803179F4DF01AE7FE3E0AA0FBB1FEA9524
:100CD000E1F7FB019681ECE0F0E0E91BF109EA0F96
:100CE000FB1FF7FF07C091E0DA019C93F195E195B6
:100CF000F10902C0DA011C92883281F4DB011496FA
:100D00008C91982F9076903649F086FF02C0EE7F46
:100D100005C085FF02C0EC7F01C0E87FCF0144E041
:100D2000969587954A95E1F7D9018C93EF70FF2747
:100D3000EC0FFD1F8181F801808380E060960FB683
:100D4000F894DEBF0FBECDBFDF91CF911F910F9101
:100D50000895882319F0719561957109442319F05C
:100D6000319521953109621773074CF081E090E0CD
:100D70002617370714F080E090E09C0102C02FEFA7
:100D80003FEFC90108950F931F93CF93DF93EC01B9
:100D90008B01B80188816AD1888381508D3F30F4FE
:100DA000F8018081883211F0803199F7DF91CF917D
:100DB0001F910F910895FF920F931F93CF93DF938D
:100DC000CDB7DEB729970FB6F894DEBF0FBECDBF03
:100DD0008FEF898704E211E0F12C1CC0BE016F5F28
:100DE0007F4FCE010996CFDF89858F3FC9F08E3FB7
:100DF000B9F0FE01319620E030E08191D801A20FD8
:100E0000B31F8C932F5F3F4F28303105B1F7F39418
:100E1000085F1F4F8985882319F084E0F812DECF20
:100E20008F2D29960FB6F894DEBF0FBECDBFDF9190
:100E3000CF911F910F91FF900895CF93DF93EC0115
:100E4000DCD0BE0184EB59D181E0EDD0C82FD5D0E4
:100E500081E0C11101C080E0DF91CF9108951F931F
:100E6000CF93DF9300D0CDB7DEB7182F69837A8395
:100E7000C4D0BAD069817A81882331F084E43DD12D
:100E8000113021F0B4D002C082E001C080E00F90A8
:100E90000F90DF91CF911F9108956F927F928F9263
:100EA0009F92AF92BF92CF92DF92EF92FF920F93F9
:100EB0001F93CF93DF93CDB7DEB729970FB6F89482
:100EC000DEBF0FBECDBF6C015B014A01890195D029
:100ED000B6018EEB12D1EE24E394F12CEC0EFD1E44
:100EE0003E018AE0680E711CBFD0F70181937F013B
:100EF000E615F705C9F769E070E0CE010196ACDEB2
:100F000081110AC09401A501BE016F5F7F4FF601F8
:100F10008081BBDE80E001C083E029960FB6F894A3
:100F2000DEBF0FBECDBFDF91CF911F910F91FF901C
:100F3000EF90DF90CF90BF90AF909F908F907F9079
:100F40006F9008957F928F929F92AF92BF92CF92AF
:100F5000DF92EF92FF920F931F93CF93DF93CDB762
:100F6000DEB729970FB6F894DEBF0FBECDBF782E3F
:100F70006B015A01890160E070E08EEBBED0EE2477
:100F8000E394F12CEC0EFD1E4E018AE0880E911CBC
:100F90006BD0F70181937F01E815F905C9F769E086
:100FA00070E0CE01019658DE811109C09501A601BD
:100FB000BE016F5F7F4F872D68DE80E001C083E058
:100FC00029960FB6F894DEBF0FBECDBFDF91CF914B
:100FD0001F910F91FF90EF90DF90CF90BF90AF9057
:100FE0009F908F907F90089580B382700895919A1A
:100FF000899A08959198899808959198899A80EA94
:101000008A95F1F79FB7F894899886E18A95F1F768
:1010100080B39FBF9AE89A95F1F7819B02C08270D6
:10102000089581E008959FB7F894899A000081118E
:10103000899825E02A95F1F7819B80E02FE02A9599
:10104000F1F789989FBF0895CF93DF93C82FD8E019
:101050008C2F8170E8DFC6958111C068D150C1F72F
:101060008C2FDF91CF9108958FEFEECFDF92EF922B
:10107000FF920F931F93CF93DF93E82EEB01BDDF19
:1010800081112DC080EFE0DFF12C10E498EFD92E14
:10109000D10E81E0C8DF082F81E0C5DF882319F079
:1010A000002369F01FC001110AC01E1530F08881AD
:1010B00080FF05C0E11201C002C0F12E01E0802FC7
:1010C000B2DF98819695011101C001C090689883A4
:1010D00011501D11DECF21961111D8CF05C0FF246C
:1010E000FA9402C08EEFF82E8F2DDF91CF911F91D1
:1010F0000F91FF90EF90DF900895FF920F931F9351
:10110000CF93DF93F82EEB0178DF209759F085E538
:101110009BDF8E01085F1F4F899196DFC017D107B3
:10112000D9F702C08CEC90DF8F2DDF91CF911F910A
:101130000F91FF9089CF80FF02C0939A01C09398CE
:1011400081FF02C0AA9A01C0AA9882FF02C0A99A90
:1011500001C0A99883FF02C0A89A0895A89808958D
:10116000CF93C82FAC9A82958F70E5DFAC98AC9A7C
:101170008C2FE1DFAC9880E18A95F1F700C0CF9128
:101180000895AD98EDCFAD9AEBCFCF93DF93EC01FF
:1011900001C0F9DF89918111FCCFDF91CF910895D2
:1011A00090E4699F800D11248068EBCF81E0E9DF36
:1011B00083EF91E00197F1F700C00000089582E00D
:1011C000E0DF83EF91E00197F1F700C000000895A0
:1011D000CF938B9AA29AA19AA09AA49AA59A85EAEB
:1011E0009EE00197F1F700C00000AD98AC98C3E015
:1011F000AC9A83E0A0DFAC9881EE94E00197F1F720
:1012000000C00000C150A1F7AC9A82E094DFAC9816
:1012100089EF90E00197F1F700C0000088E2B1DFAC
:1012200088E0AFDF81E0ADDF83EF91E00197F1F778
:1012300000C0000086E0A5DF8CE0CF91A2CFCF9365
:10124000DF93CDB7DEB761970FB6F894DEBF0FBE60
:10125000CDBF4AE050E0BE016F5F7F4FE5D495DF20
:1012600061960FB6F894DEBF0FBECDBFDF91CF9170
:1012700008958FB9779BFECF8FB1089593E09A952B
:10128000F1F70000C29893E09A95F1F70000F1DFC2
:1012900083E08A95F1F700008FEFEBDF93E09A95FA
:1012A000F1F70000C29A0895CF93DF931F92CDB754
:1012B000DEB793E09A95F1F70000C298E3E0EA9573
:1012C000F1F70000805E6983D4DFF3E0FA95F1F76F
:1012D00000006981862FCDDF83E08A95F1F7000059
:1012E000C29A0F90DF91CF910895CF92DF92EF9243
:1012F000FF920F931F93CF93DF93C82ED62E7A01C0
:10130000022F81E0C81202C080E2D80E83E08A95E5
:10131000F1F70000C29883E08A95F1F700008D2D67
:10132000A8DF83E08A95F1F70000C0E0D0E010E08C
:1013300016C0C1100AC080EAD81639F08FEF99DFC5
:10134000FE01EE5FFE4F808305C0F701EC0FFD1F2D
:1013500080818FDF83E08A95F1F700002196C01726
:10136000D1073CF3C29A82E091E0DF91CF911F91C7
:101370000F91FF90EF90DF90CF9008951F93CF9340
:10138000DF9300D000D01F92CDB7DEB787EA91E699
:101390000197F1F700C0000011E0198321E0AE01D0
:1013A0004F5F5F4F61E081E0A0DF198321E0AE0174
:1013B0004F5F5F4F62E081E098DF83E0898321E047
:1013C000AE014F5F5F4F63E081E08FDF86E289838C
:1013D00021E0AE014F5F5F4F66E081E086DF12E102
:1013E00019831A831B831C831D8325E0AE014F5F85
:1013F0005F4F6AE081E079DF19831A831B831C83C6
:101400001D8325E0AE014F5F5F4F60E181E06DDF3E
:1014100085E0898321E0AE014F5F5F4F61E181E0AC
:1014200064DF8FE1898321E0AE014F5F5F4F60E0B1
:1014300081E05BDF87EA91E60197F1F700C00000E9
:101440008FE2898321E0AE014F5F5F4F64E081E06E
:101450004CDF0F900F900F900F900F90DF91CF9176
:101460001F910895CF93DF93EC0120E0AC0161EE72
:1014700080E03BDF25E0AE0160EA80E036DF83EC10
:1014800099E00197F1F700C00000979A92E49A95CD
:10149000F1F700C0979883EC99E00197F1F700C04D
:1014A0000000DF91CF91089583E08A95F1F7000065
:1014B000C29883E08A95F1F7000087E2DADE83E0E4
:1014C0008A95F1F7000080E7D4DE83E08A95F1F792
:1014D0000000C29A089561E08AE062DE84ED90E047
:1014E00054DE80914B01882331F08CEA90E04DDE90
:1014F00061E08AE002C061E08BE052DE809147014A
:1015000090E09DDE8EEA90E040DE80914A0190E01E
:1015100096DE84E038DE60E080E042CE87B3866805
:1015200087BB8F9AA39A8D98959AAB98C79887B3E3
:10153000886287BB8DB183658DB9C29A979883B74E
:10154000856083BF89B7816089BF42DE34DC60E09B
:1015500070E081E084DC80E414DEC8E8D0E08991AA
:1015600012DE20E0C039D207D1F780E80ADE88E435
:1015700008DEC0E8D0E0899106DE80E0C838D807F0
:10158000D1F780E8FEDD80E5FCDDC8E7D0E0899199
:10159000FADD90E0C038D907D1F780E8F2DD88E5C0
:1015A000F0DDC0E7D0E08991EEDD20E0C837D2075A
:1015B000D1F780E8E6DD80E6E4DDC8E6D0E0899199
:1015C000E2DD80E0C037D807D1F780E8DADD88E6D1
:1015D000D8DDC0E6D0E08991D6DD90E0C836D907E5
:1015E000D1F780E8CEDD8A98929A85B7826085BF70
:1015F0008BB780648BBF789487E040DEC82FBEDE57
:1016000053DF979A8EE18093920081E0BCDD80EBFE
:1016100090E0BBDD81E0B7DD61E084E0C1DD8FEB10
:1016200090E0B3DD2FEB87E299E0215080409040BD
:10163000E1F700C00000BADDCE3021F088EC90E088
:10164000A4DDFFCF80E090E00ED38093EE008630E3
:1016500010F01092EE008091EE008093ED0060E0BB
:1016600089E09EDD83E08FDD61E089E099DD82E045
:101670008ADD61E08091EE0093DD85E084DD14E198
:10168000C5E0D0E00AE0809193009091F70091309E
:1016900009F0E7C0843108F0E4C0E0912201F09144
:1016A000230182818093F80090919000891751F175
:1016B00060E080E075DD82ED90E067DD60E080E075
:1016C0006FDDEE24E394F12C05C08FEF5CDD2FEF8E
:1016D000E21AF20A8091F80090E08E159F05ACF7AF
:1016E000E12CF12C05C080E04EDD8FEFE81AF80AFE
:1016F0002091F800CE01821B91098E159F059CF761
:10170000209390002091EE0030E08091F80090E06E
:101710005091EF002817390764F051110AC0409129
:10172000F5004F5F4093F500463018F041E04093DC
:10173000F400281739072CF41092EF001092F500EE
:1017400004C0513011F410939200E0912201F09105
:101750002301608170E080E090E072D82AE037EDEC
:1017600043E250E44FD620E030E04FE753E42AD77D
:101770009B01AC01F7D526E636E646E650E418D6DE
:101780002AE939E949E15FE31DD720E030E048EC80
:1017900052E438D66B017C0120E030E048EC52E4A2
:1017A0007D2D9F2DADD718162CF08C2D9D2DAE2D97
:1017B000BF2D04C080E090E0A8ECB2E48093FD006F
:1017C0009093FE00A093FF00B09300016091FD0094
:1017D0007091FE008091FF009091000140D46093D1
:1017E000FA00809145016817A1F060E08BE0D8DC39
:1017F00085ED90E0CADC60E08BE0D2DC8091FA00FD
:1018000090E01DDD8CED90E0C0DC8091FA008093CB
:101810004501E0912201F0912301918180914901DC
:10182000911104C0823348F48B5F05C0913029F4D4
:10183000882319F0815080934901809149018823C0
:1018400029F060E08FE0ACDC81E09DDC1092F700D5
:101850001092F6001092F2001092F3001092F00035
:1018600013C09091F60091110FC0843168F060E0D0
:1018700080E096DC8EED90E088DC81E08093F600DD
:1018800000939000109245018091F90081110DC0E4
:1018900080919100803148F060E070E081E0DFDA13
:1018A0001092910081E08093F9008091F9008130DD
:1018B00091F52AE431E047E451E06BE471E084E221
:1018C00091E0EBDA811127C01092F90091E02091AC
:1018D000470180914401281301C090E081E03091DC
:1018E0004B0120914801321301C080E0892B31F473
:1018F00090914A0180914601981769F0ECDD809142
:101900004B0180934801809147018093440180916D
:101910004A01809346018091E9008130A1F4109240
:10192000E90061E080E03CDC85ED90E02EDC61E0E8
:101930008091ED0035DC8091EA00823010F485E082
:1019400001C080E220DC8091EC00813009F09BCE68
:101950001092EC00E199FECF6091EE0080E090E003
:101960008AD191CE1F920F920FB60F9211242F930E
:101970003F938F939F9380919100843118F48F5FF0
:1019800080939100859904C0AB9A8EE18093920078
:1019900080919300893138F48F5F80939300843174
:1019A00011F48093920080919200882359F0815025
:1019B00080939200823008F0AB9A8091920081303F
:1019C00009F4AB988091F300813021F08091F4000C
:1019D000813041F488B392E0892788BB85E0809309
:1019E000920001C0C198859908C08091F4008130AF
:1019F00021F41092F4008093EF008091F0008111A7
:101A00000AC08091F2008F5F8093F200893C18F049
:101A100081E08093F300859908C08091F3008130C4
:101A200021F41092F3008093F00020B391E08091B4
:101A3000F300811190E081E03091F400311180E0F9
:101A4000982381E03091EB00311180E0892399F0F7
:101A500091E025FB882780F9891769F08091E800DB
:101A60008F5F8093E800803140F09093EB0084E139
:101A70008093E60002C01092E8008091EB00813074
:101A8000B9F58091EA008F5F843018F48093EA0002
:101A900002C01092EA0081E08093E900859914C0A9
:101AA0008091E700813091F41092E7008091ED0081
:101AB0008F5F863018F48093ED0002C01092ED0025
:101AC00084E18093E60002C08093E7008091E60005
:101AD00081508093E60081110BC01092EB001092B0
:101AE000EA008091ED008093EE0081E08093EC00AD
:101AF0009F918F913F912F910F900FBE0F901F904C
:101B000018951F920F920FB60F9211242F933F93A7
:101B10004F935F936F937F938F939F93AF93BF93F5
:101B2000EF93FF9380919300853118F084E18093C7
:101B300092009798C798409122015091230125E087
:101B400061E680E0D2DB909323018093220181E063
:101B50008093F700A9DC83E08A95F1F70000979A5B
:101B600010929300C79AFF91EF91BF91AF919F910F
:101B70008F917F916F915F914F913F912F910F9036
:101B80000FBE0F901F90189506D084FF0895CB01CB
:101B900002D0805F0895AA27992329F4A85F982B83
:101BA00011F480E10895903118F4AD5F9295A395FA
:101BB000990FE8F78A2F992708952F923F924F9215
:101BC0005F926F927F928F929F92AF92BF92CF92CD
:101BD000DF92EF92FF920F931F93CF93DF93CDB7D6
:101BE000DEB7CA1BDB0B0FB6F894DEBF0FBECDBF4E
:101BF00009942A88398848885F846E847D848C841F
:101C00009B84AA84B984C884DF80EE80FD800C8127
:101C10001B81AA81B981CE0FD11D0FB6F894DEBF0A
:101C20000FBECDBFED010895FB019F01E894423046
:101C3000BCF04532ACF44A3029F497FB1EF4909581
:101C400081959F4F642F772733D0805D8A330CF0C6
:101C5000895D8193CB010097A9F716F45DE251935A
:101C60001082C90115C0E199FECF9FBB8EBBE09ADF
:101C700099278DB30895262FE199FECF9FBB8EBB88
:101C80002DBB0FB6F894E29AE19A0FBE0196089523
:101C9000DC01FC01672F71917723E1F7329704C0D3
:101CA0007C916D9370836291AE17BF07C8F308955E
:101CB000AA1BBB1B51E107C0AA1FBB1FA617B70772
:101CC00010F0A61BB70B881F991F5A95A9F780958E
:0C1CD0009095BC01CD010895F894FFCF61
:101CDC00040E1F1B112020200814080708080807F1
:101CEC000E1B11111F1F1F1F040A0A0A0A11110EC5
:101CFC000204081F0214181C1F1111111111111FBD
:101D0C000AC8140A000101020203040405060607AE
:101D1C000708090900000000000000002D002C003D
:101D2C00454E455247495A4552204354524C006245
:101D3C0079204B40524F4C004E5246204552524F48
:101D4C00520020202020202020202000250042723C
:061D5C00616B2070000025
:00000001FF
